:100000000C94C0010C94E8010C94E8010C94E801F4
:100010000C94E8010C94E8010C94E8010C94E801BC
:100020000C94E8010C94E8010C94E8010C94E801AC
:100030000C94E8010C94E8010C94E8010C94E8019C
:100040000C94D4240C94E8010C9444250C941E25A3
:100050000C94E8010C94E8010C94E8010C94E8017C
:100060000C9476250C94E801084AD73B3BCE016EF0
:1000700084BCBFFDC12F3D6C74319ABD56833DDAFF
:100080003D00C77F11BED9E4BB4C3E916BAAAABE0E
:10009000000000803F072C7AA5BA6CC590DA3B932C
:1000A00065FC8BBC53F810FD3C5692834DBD879D7B
:1000B0003AB63DCBC9BF5BBE73DA0FC93F05A84C4A
:1000C000CDB2D44EB93836A9020C50B99186880801
:1000D0003CA6AAAA2ABE000000803F004E414E491D
:1000E0004E495459494E46CDCCCC3D0AD7233C17F6
:1000F000B7D13877CC2B329595E6241FB14F0A0043
:100100000020410000C84200401C4620BCBE4CCA32
:100110001B0E5AAEC59D740A0B0C0D0E0F0001028A
:100120000304054D494E495F51504F445F494B5FB1
:1001300057414C4B5F4D56502050574D3D4F464612
:10014000205550444154453D3235485A004552529D
:1001500020434F4D4D414E44004F4B2047414954A1
:10016000004552522052454144595F52455155492C
:10017000524544004F4B20535445500045525220A5
:1001800053544F505F4245464F52455F535445507C
:10019000004552522052454144595F5245515549FC
:1001A000524544004F4B205245414459494E470067
:1001B0004F4B204F50454E494E4700455252204F1D
:1001C00050454E494E475F52414E4745004F4B20E8
:1001D00048454947485400455252204845494748F8
:1001E000545F52414E4745004F4B2053544F50509F
:1001F000494E47004F4B204F4646004F4B20504141
:10020000545445524E2000455252205041545445BA
:10021000524E004552522053544F505F4245464F74
:1002200052455F5041545445524E0048454C503A57
:10023000205245414459207C205354455020302EB3
:100240002E33207C204359434C45207C2050415480
:100250005445524E2057414C4B2F574156452F5431
:10026000524F54207C20464F52574152442F424116
:10027000434B574152442F4C4546542F524947480F
:10028000542F464F52574152445F4C4546542F46D7
:100290004F52574152445F52494748542F424143BD
:1002A0004B574152445F4C4546542F4241434B57B4
:1002B0004152445F5249474854207C2048454947B1
:1002C0004854206D6D207C204F50454E494E4720AC
:1002D0006D6D207C205041555345207C2053544F58
:1002E00050207C2058004F4B205245414459004536
:1002F00052522052454144595F494B0045525220C9
:10030000474149545F494B5F4F525F4C494D4954F7
:10031000004F4B204F4646004641494C534146450D
:10032000204E52462053544F5050494E4700000033
:1003300000080002010000030407000000000000A4
:10034000000000000000250028002B000000000035
:10035000240027002A000404040404040404020204
:100360000202020203030303030301020408102034
:100370004080010204081020010204081020952684
:1003800011241FBECFEFD8E0DEBFCDBF26E0A0EA2C
:10039000B3E001C01D92A13FB207E1F713E0A0E076
:1003A000B1E0E0E2F5E702C005900D92A03AB10796
:1003B000D9F711E0C0ECD1E004C02197FE010E9402
:1003C0003D39CF3BD107C9F70E94FD260C948E3AE8
:1003D0000C94000090E0FC01E659FC4F24918A5AED
:1003E0009C4FFC018491882399F090E0880F991F1D
:1003F000FC01E45BFC4FA591B491FC01EE5BFC4F6A
:10040000859194918FB7F894EC91E22BEC938FBF88
:1004100008950895089590E0FC01E25DFC4F249159
:10042000FC01E659FC4F3491FC01EA5AFC4FE4917F
:10043000EE23C9F0222339F0233001F1A8F4213052
:1004400019F1223029F1F0E0EE0FFF1FEE5BFC4FB7
:10045000A591B4918FB7F894EC91611126C03095B5
:100460003E233C938FBF08952730A9F02830C9F070
:10047000243049F7809180008F7D03C080918000F7
:100480008F7780938000DFCF84B58F7784BDDBCFFB
:1004900084B58F7DFBCF8091B0008F778093B000C3
:1004A000D2CF8091B0008F7DF9CF3E2BDACF682F6D
:1004B0008091BF060E940B028091DD069091DE06BE
:1004C0008230910538F0880F991F880F991F059782
:1004D0000197F1F7089581E00C9457023FB7F89423
:1004E0008091A8049091A904A091AA04B091AB04B2
:1004F00026B5A89B05C02F3F19F00196A11DB11D7F
:100500003FBFBA2FA92F982F8827BC01CD01620FBA
:10051000711D811D911D42E0660F771F881F991F75
:100520004A95D1F708958F929F92AF92BF92CF9242
:10053000DF92EF92FF924B015C010E946E026B0111
:100540007C010E946E026C197D098E099F09683E2C
:10055000734081059105A8F321E0821A9108A10852
:10056000B10888EEC80E83E0D81EE11CF11C81148E
:100570009104A104B10429F7FF90EF90DF90CF9090
:10058000BF90AF909F908F900895AF92BF92CF92FF
:10059000DF92EF92FF920F931F93CF93DF936C0143
:1005A0007B018B01040F151FEB015E01AE18BF0824
:1005B000C017D10759F06991D601ED91FC910190D6
:1005C000F081E02DC6010995892B79F7C501DF91EE
:1005D000CF911F910F91FF90EF90DF90CF90BF9040
:1005E000AF900895FC01538D448D252F30E0842F6A
:1005F00090E0821B930B541710F0CF96089501974B
:100600000895FC01918D828D981761F0A28DAE0F37
:10061000BF2FB11D5D968C91928D9F5F9F73928FBE
:1006200090E008958FEF9FEF0895FC01918D828DEA
:10063000981731F0828DE80FF11D858D90E00895B7
:100640008FEF9FEF0895FC01918D228D892F90E00F
:10065000805C9F4F821B91098F739927089582E1D7
:1006600096E00E94230321E0892B09F420E0822FE9
:10067000089580E090E0892B29F00E942F038111DA
:100680000C9400000895FC01A48DA80FB92FB11D92
:10069000A35ABF4F2C91848D90E001968F739927B8
:1006A000848FA689B7892C93A089B1898C91837096
:1006B00080648C93938D848D981306C00288F3898F
:1006C000E02D80818F7D80830895EF92FF920F93BC
:1006D0001F93CF93DF93EC0181E0888F9B8D8C8DEE
:1006E00098131AC0E889F989808185FF15C09FB7E2
:1006F000F894EE89FF896083E889F98980818370A5
:10070000806480839FBF81E090E0DF91CF911F9153
:100710000F91FF90EF900895F62E0B8D10E00F5F74
:100720001F4F0F731127E02E8C8D8E110CC00FB64A
:1007300007FCFACFE889F989808185FFF5CFCE01E2
:100740000E944303F1CFEB8DEC0FFD2FF11DE35A17
:10075000FF4FF0829FB7F8940B8FEA89FB89808165
:100760008062CFCF0F931F93CF93DF938C01D0E0A4
:10077000C0E0F801EC0FFD1F6491662341F082E1B7
:1007800096E00E946503892B11F02196F2CFCE01ED
:10079000DF91CF911F910F910895CF93DF93EC01DB
:1007A000888D8823B9F0AA89BB89E889F9898C9159
:1007B00085FD03C0808186FD0DC00FB607FCF7CF15
:1007C0008C9185FFF2CF808185FFEDCFCE010E9415
:1007D0004303E9CFDF91CF9108958EBD00000DB4A2
:1007E00007FEFDCF8EB508952091C103260F332754
:1007F000331F21323105ECF42091F804FC0190E024
:1008000080E0243069F082E00895A091C103219135
:10081000AC014F555C4FA40FB52FB11D2C93019621
:10082000861798F38091C103680F6093C10380E03D
:10083000089581E008951092F80481E08093F70410
:100840001092D20461E082E10E940B0261E083E138
:100850000E940B02E9EBF0E080818E7F8083808133
:100860008D7F808388E48093B80085E48093BC000A
:1008700008951092B1041092B0041092FF041092E7
:1008800021050E941B0489E092E09093AF048093BD
:10089000AE048AE092E09093AD048093AC04089596
:1008A000CF93DF9391E09093A0038823B9F0C09198
:1008B000B800D091BA008091BC008A7B8093BC00C4
:1008C00060E082E10E940B0260E083E10E940B0283
:1008D0000E941B04D093BA00C093B800DF91CF915F
:1008E00008958F929F92AF92BF92CF92DF92EF9234
:1008F000FF920F931F93CF93DF93D0912105D132B5
:1009000008F0D7C0182FC09120050E946E026B011D
:100910007C018091F80481116BC082E08093F8041F
:100920001093F7048FEF8093F6041092F504D093A0
:10093000F404A0E0B5E0E4EDF4E080E0D81391C069
:100940001092D3048091D304CC0FC82BC093D3044E
:100950008091D204813009F088C01092D2040E94A4
:100960006E026B017C018091D3048093BB00809167
:10097000FA049091FB04A091FC04B091FD04892B32
:100980008A2B8B2BA1F00E946E020091FA04109129
:10099000FB042091FC043091FD046C197D098E0943
:1009A0009F09061717072807390708F442C08091E6
:1009B000BC0083FDD8CF85EC8093BC000E946E0202
:1009C0006B017C018091F804823009F450C0809161
:1009D000F6048F3F09F46FC08091F604803209F469
:1009E0006CC08091F604803309F469C084E026C0AD
:1009F0008091FA049091FB04A091FC04B091FD0455
:100A0000892B8A2B8B2B09F484CF0E946E02809055
:100A1000FA049090FB04A090FC04B090FD046C19C3
:100A20007D098E099F0986169706A806B90608F063
:100A300070CF8091F9040E94500485E01092FF0469
:100A4000109221051092FE04DF91CF911F910F911A
:100A5000FF90EF90DF90CF90BF90AF909F908F90DE
:100A600008959D9191938F5F69CF85EEA5CF809179
:100A7000FA049091FB04A091FC04B091FD04892B31
:100A80008A2B8B2B09F49ECF0E946E020091FA04F0
:100A90001091FB042091FC043091FD046C197D0938
:100AA0008E099F09061717072807390708F08ACF0C
:100AB000C0CF81E0C3CF80E0C1CF82E0BFCF83E071
:100AC000BDCF1F93CF93DF93EA01122FDC01119664
:100AD0008D919C91DC01ED91FC910280F381E02DE0
:100AE0000995C817D90729F4812F0E94710491E054
:100AF000811190E0892FDF91CF911F910895CF93BD
:100B0000DF93EC018B818823A1F0888191E09093A1
:100B1000FE04809320051092FF041092210581E0CD
:100B20000E94710491E0811190E0892FDF91CF91B3
:100B300008950E94390481E08B83CE010E947F05D5
:100B4000982F8111E2CFF1CF0895E091B104809107
:100B5000B004E81730F4F0E0EE54FB4F808190E0F1
:100B600008958FEF9FEF08959091B1048091B004A4
:100B70002FEF3FEF981748F4E92FF0E0EE54FB4FCA
:100B8000208130E09F5F9093B104C9010895809166
:100B9000B0049091B104891B990B0895CF92DF9214
:100BA000EF92FF920F931F93CF93DF937C01CB01C2
:100BB0008A012091FE04222389F0EB016B01C40E0F
:100BC000D51ECC15DD0569F06991D701ED91FC9139
:100BD0000190F081E02DC7010995F3CF642F0E94A9
:100BE000F403C801DF91CF911F910F91FF90EF9017
:100BF000DF90CF900895CF93DF931F92CDB7DEB7EC
:100C000069832091FE042223F9F0209121052032EE
:100C100058F021E030E0FC013383228390E080E053
:100C20000F90DF91CF9108958091FF04E82FF0E0BD
:100C3000E050FB4F998190838F5F8093FF048093F6
:100C4000210581E090E0ECCF61E0CE0101960E94A9
:100C5000F403F7CF90E080E00895E0EFF3E0ACE13B
:100C6000B1E041915191619171914D935D936D937B
:100C70007D9384E0E030F807A1F78091EC03909138
:100C8000ED03A091EE03B091EF03809318019093D0
:100C90001901A0931A01B0931B0110926F040895DB
:100CA000FC018481958186239723892B49F08091CB
:100CB000E5039091E6036823792381E0672B09F02F
:100CC00080E00895CF92DF92EF92FF92282F220FBB
:100CD000292F221F2F3F09F16B017C0120E030E01A
:100CE000A9010E946A3387FD18C020E030E040E48B
:100CF00051E4C701B6010E94E837181674F0C0929B
:100D00006A04D0926B04E0926C04F0926D0481E06E
:100D1000FF90EF90DF90CF90089580E0F9CFCF92D1
:100D2000DF92EF92FF92282F220F292F221F2F3FB1
:100D300011F16B017C0120E030E040E451EC0E94B5
:100D40006A3387FD18C020E030E040E451E4C70179
:100D5000B6010E94E837181674F0C0926604D0926B
:100D60006704E0926804F092690481E0FF90EF90DC
:100D7000DF90CF90089580E0F9CF682F660F692F3C
:100D8000661F81E06F3F09F480E008954F925F9203
:100D90006F927F928F929F92AF92BF92EF92FF924B
:100DA0000F931F93CF93DF938C3008F08AC07901A3
:100DB0004A015B01C82FCB01BA010E94BD06D82FA2
:100DC000882309F47EC00C2F10E08C2F63E00E9472
:100DD000093924E0929FF00111248BEAC89FC12DAC
:100DE0001124C6953CE0C39FE00DF11D1124E25192
:100DF000FE4F2081318142815381C501B4010E949F
:100E0000F3342B013C0127E0209FC001219F900D6E
:100E10001124FC01E65CFE4F5F016681062E000C8A
:100E2000770B880B990B0E9471339B01AC01C301B6
:100E3000B2010E94D03320E030E044E353E40E944A
:100E4000D0332BED3FE049E450E40E94D735000F4A
:100E5000111F000F111FF801E257FE4F2081318151
:100E6000428153810E94F4342B013C01F7014082FE
:100E7000518262827382F501608171816B5F7F4F65
:100E8000072E000C880B990B0E9471339B01AC015B
:100E9000C301B2010E94E83787FD13C0F5016481E8
:100EA000758165507109072E000C880B990B0E9403
:100EB00071339B01AC01C301B2010E946A33181661
:100EC0000CF4D0E08D2FDF91CF911F910F91FF9007
:100ED000EF90BF90AF909F908F907F906F905F90BA
:100EE0004F9008958F929F92AF92BF92CF92DF92D0
:100EF000EF92FF92682F880F770B880B990B0E9457
:100F0000713320E030E04EEF52E40E94D7359B0170
:100F1000AC0160E070E080E89FE30E94AE369B0188
:100F2000AC0160E070E080E89FEB0E948F366B01BF
:100F30007C014B015C01E894B7F82CEE31E548E305
:100F40005EE3C501B4010E946A33181684F520E0FF
:100F500030E0A901C701B6010E946A33C12CD12C2F
:100F600090E8E92E9FE3F92E87FF06C0C12CD12C13
:100F700080E8E82E8FEBF82E2CEE31E548E35EE3B7
:100F8000C501B4010E94F334A70196010E94D03339
:100F900025E83BEE41E55FE30E94D735FF90EF90F7
:100FA000DF90CF90BF90AF909F908F90089560E0BA
:100FB00070E0CB01F3CF2F923F924F925F926F92EE
:100FC0007F928F929F92AF92BF92CF92DF92EF92D9
:100FD000FF920F931F93CF93DF93CDB7DEB7CC551E
:100FE000D1090FB6F894DEBF0FBECDBF61966CAFCE
:100FF0007DAF8EAF9FAF619765962CAF3DAF4EAF83
:101000005FAF65976996ECAEFDAE0EAF1FAF699707
:10101000C090D205D090D305E090D405F090D505CE
:101020008091D6059091D705A091D805B091D905AA
:1010300089AF9AAFABAFBCAF8091DA059091DB0579
:10104000A091DC05B091DD0521968CAF9DAFAEAFD0
:10105000BFAF21978091DE059091DF05A091E0055B
:10106000B091E10529968CAF9DAFAEAFBFAF299788
:10107000C701B6010E94D2352B013C01C701B60160
:101080000E949C3825966CAF7DAF8EAF9FAF2597A1
:10109000A2EEB5E0B8AFAFAB8E010F5F1F4FFE0100
:1010A000F196FAABE9AB1801BCABABABABA9BCA9F1
:1010B0008D909D90AD90BC9013971496CD90DD903F
:1010C000ED90FC90179718968D919D910D90BC9185
:1010D000A02D2D968CAF9DAFAEAFBFAF2D97A301C6
:1010E0009201C501B4010E94D03329962CAD3DADCB
:1010F0004EAD5FAD29970E94F4346D966CAF7DAF15
:101100008EAF9FAF6D97A701960125966CAD7DAD13
:101110008EAD9FAD25970E94D0339B01AC016D969B
:101120006CAD7DAD8EAD9FAD6D970E94F334F10136
:10113000608371838283938325962CAD3DAD4EAD44
:101140005FAD2597C501B4010E94D03321962CAD27
:101150003DAD4EAD5FAD21970E94F4344B015C0173
:10116000A7019601C301B2010E94D0339B01AC01DB
:10117000C501B4010E94F434D10114966D937D939E
:101180008D939C9317972D962CAD3DAD4EAD5FADD5
:101190002D9769AD7AAD8BAD9CAD0E94F434F10111
:1011A00060877187828793878BA99CA90C969CABDB
:1011B0008BAB9CE0290E311CA9A9BAA9A215B305D5
:1011C00009F074CF61962CAD3DAD4EAD5FAD61972A
:1011D00029966CAD7DAD8EAD9FAD29970E94F434FC
:1011E0006BAB7CAB8DAB9EAB6093DE057093DF0584
:1011F0008093E0059093E10565962CAD3DAD4EAD35
:101200005FAD659721966CAD7DAD8EAD9FAD21979D
:101210000E94F43421966CAF7DAF8EAF9FAF2197C3
:101220006093DA057093DB058093DC059093DD0510
:1012300069962CAD3DAD4EAD5FAD699769AD7AADA8
:101240008BAD9CAD0E94F43469AF7AAF8BAF9CAF8D
:101250006093D6057093D7058093D8059093D905F0
:1012600025968CAD9DADAEADBFAD2597B0586196BE
:101270008CAF9DAFAEAFBFAF61972BA93CA94DA975
:101280005EA9D8016D917D918D919C910E94F3345E
:101290004B015C0121962CAD3DAD4EAD5FAD21976C
:1012A000F80164817581868197810E94F3346B0116
:1012B0007C0129AD3AAD4BAD5CADD80118966D916E
:1012C0007D918D919C911B970E94F33429966CAF70
:1012D0007DAF8EAF9FAF2997A5019401C301B201E5
:1012E0000E94D0332D966CAF7DAF8EAF9FAF2D9700
:1012F000A701960125966CAD7DAD8EAD9FAD25976E
:101300000E94D0339B01AC012D966CAD7DAD8EADAE
:101310009FAD2D970E94F434EFA9F8AD60837183DF
:1013200082839383A501940161966CAD7DAD8EADF2
:101330009FAD61970E94D0334B015C01A7019601DC
:10134000C301B2010E94D0339B01AC01C501B401BD
:101350000E94F434AFA9B8AD14966D937D938D932C
:101360009C93179729968CAD9DADAEADBFAD2997D7
:10137000EFA9F8AD80879187A287B387045F1F4FDD
:101380003C96F8AFEFAB2016310609F076CFC45A81
:10139000DF4F0FB6F894DEBF0FBECDBFDF91CF9108
:1013A0001F910F91FF90EF90DF90CF90BF90AF9083
:1013B0009F908F907F906F905F904F903F902F9075
:1013C00008952F923F924F925F926F927F928F92E9
:1013D0009F92AF92BF92CF92DF92EF92FF920F93C4
:1013E0001F93CF93DF93CDB7DEB762970FB6F89414
:1013F000DEBF0FBECDBF8091E8039091E903A091BD
:10140000EA03B091EB0380932E0590932F05A093F0
:101410003005B093310580E090E0A0E8BFE780930D
:101420002C0190932D01A0932E01B0932F01809356
:10143000300190933101A0933201B093330102EE59
:1014400015E082EA95E09A8B898B82E4282E85E06C
:10145000382EA2E7B5E0BA83A983E2E3F5E0FC8386
:10146000EB83D8018D919D910D90BC91A02D8D8322
:101470009E83AF83B887D80114968D919D910D906E
:10148000BC91A02D89879A87AB87BC87C090D20575
:10149000D090D305E090D405F090D505C701B601F2
:1014A0000E94D2354B015C01C701B6010E949C38F5
:1014B0006B017C012D813E814F8158850E94D03384
:1014C0002091DA053091DB054091DC055091DD0576
:1014D0000E94F4342B013C0129853A854B855C85BB
:1014E000C501B4010E94D0339B01AC01C301B2011C
:1014F0000E94F4346D877E878F87988BF801208552
:101500003185428553856091D6057091D7058091CC
:10151000D8059091D9050E94F4342B013C012D810E
:101520003E814F815885C501B4010E94D03320917E
:10153000DE053091DF054091E0055091E1050E9404
:10154000F4344B015C0129853A854B855C85C701E4
:10155000B6010E94D0339B01AC01C501B4010E94C9
:10156000F334A989BA896D937D938D939C931397D6
:101570008D859E85AF85B889E989FA8984839583AD
:10158000A683B78340865186628673868CE0D1013C
:1015900001900D928A95E1F78CE0F101A981BA8161
:1015A00001900D928A95E1F780912A0590912B0583
:1015B000A0912C05B0912D05EB81FC818193919335
:1015C000A193B193FC83EB83045F1F4F89899A89B0
:1015D0000C969A8B898B9CE0290E311CA981BA81CB
:1015E0001C96BA83A983B6E002311B0709F039CFF4
:1015F00082E090E0909371048093700462960FB63D
:10160000F894DEBF0FBECDBFDF91CF911F910F9138
:10161000FF90EF90DF90CF90BF90AF909F908F9012
:101620007F906F905F904F903F902F9008952F92F2
:101630003F924F925F926F927F928F929F92AF9262
:10164000BF92CF92DF92EF92FF920F931F93CF93AF
:10165000DF93CDB7DEB7A2970FB6F894DEBF0FBE0B
:10166000CDBF8091700490917104029769F510923A
:101670009704109298041092990410929A04109270
:101680009B0410929C0410929D0410929E0481E091
:101690008093650481E0A2960FB6F894DEBF0FBE7A
:1016A000CDBFDF91CF911F910F91FF90EF90DF9011
:1016B000CF90BF90AF909F908F907F906F905F90F2
:1016C0004F903F902F90089502EE15E081E394E053
:1016D000988F8F8BAEEEB1E0BA8FA98F8EEB282E4C
:1016E00081E0382EE1E0F4E0FE87ED878CE0F80140
:1016F000AF89B88D01900D928A95E1F78CE0E98D64
:10170000FA8DDE01119601900D928A95E1F789819B
:101710009A81AB81BC818F87988BA98BBA8B4D80C6
:101720005E806F807884C301B2010E94D2354B0184
:101730005C0129853A854B855C85C301B2010E9415
:10174000F4346B017C010E94D2356B8B7C8B8D8BCA
:101750009E8B2AEA31E742E752E4C501B4010E94B8
:10176000D0332EE03DE249E252E40E94F4344B01D2
:101770005C0121E93DE641EB52E46B897C898D896E
:101780009E890E94D0339B01AC01C501B4010E9427
:10179000F4344B015C016F85788989899A890E94AC
:1017A000D2359B01AC01C501B4010E94D0336B8BD3
:1017B0007C8B8D8B9E8B6F85788989899A890E9415
:1017C0009C389B01AC01C501B4010E94D0336F87E6
:1017D000788B898B9A8BC301B2010E949C386B8FE6
:1017E0007C8F8D8F9E8FC701B6010E949C386F8FB2
:1017F00078A389A39AA3D1011896CD90DD90ED909E
:10180000FC901B97C701B6010E94D2354B015C01C9
:10181000C701B6010E949C386B017C012B893C8971
:101820004D895E890E94D033F10124813581468142
:1018300057810E94F4342B013C012F853889498956
:101840005A89C501B4010E94D0339B01AC01C30188
:10185000B2010E94F4342B013C012B893C894D8953
:101860005E89C501B4010E94D033D1012D913D9113
:101870004D915C910E94F4344B015C012F853889B5
:1018800049895A89C701B6010E94D0339B01AC0136
:10189000C501B4010E94F334ED85FE856083718338
:1018A0008283938344825582668277822AEA31E773
:1018B00042E752E46B8D7C8D8D8D9E8D0E94D033DE
:1018C0006B017C0121E93DE641EB52E46F8D78A18B
:1018D00089A19AA10E94D0339B01AC01C701B60136
:1018E0000E94F434ED85FE85608771878287938737
:1018F000045F1F4F8F89988D0C96988F8F8BA98DC1
:10190000BA8D1C96BA8FA98FBCE02B0E311C3C9669
:10191000FE87ED87E6E002311E0709F0E7CE109260
:10192000610410926204109263041092640481E0D6
:1019300090E09093710480937004ACCE1F93CF938A
:10194000DF9300D000D01F92CDB7DEB7880F880F8D
:101950008A5F89831A821B826C837D838091E5066E
:101960009091E606FC012481358125303105E0F0B7
:10197000208111E01093FE04209320051092FF04B3
:101980001092210521E045E050E0BE016F5F7F4FDE
:101990000E94610581270F900F900F900F900F907C
:1019A000DF91CF911F91089581E0F5CFCF93C0E0F3
:1019B00060E070E18C2F0E949E0CCF5FC031C1F7B8
:1019C00060E070E18CE00E949E0C80916F048111B8
:1019D0000E942D061092000410927104109270045F
:1019E00010922205109223051092240510922505CD
:1019F00010922605109227051092280510922905AD
:101A000010929704109298041092990410929A04DC
:101A100010929B0410929C0410929D0410929E04BC
:101A2000109265041092E703CF910895CF93DF934E
:101A300000D0CDB7DEB789836A838091E5069091A7
:101A4000E606FC01248135812230310590F02081A9
:101A500031E03093FE04209320051092FF04109291
:101A6000210521E042E050E0BE016F5F7F4F0E9400
:101A700061050F900F90DF91CF9108952F923F92C3
:101A80004F925F926F927F928F929F92AF92BF928E
:101A9000CF92DF92EF92FF920F931F93CF93DF933A
:101AA0001F92CDB7DEB76B017C0120E030E040E84B
:101AB0005FE30E946A3387FDECC020E030EC4AE52A
:101AC00055E4C701B6010E94E83718160CF4E8C0C7
:101AD0006091E7067091E8068091E9069091EA0628
:101AE0000E946F334B015C0120E030E040E855E498
:101AF000C701B6010E94D0339B01AC01C501B401FE
:101B00000E94D73520E030E040E05FE30E94F434EB
:101B100020E030E040E85FE30E94F3346B017C0199
:101B200020E030E040E450E40E946A3387FDC0C00A
:101B300020E030E04FE753E4C701B6010E94E837E8
:101B400018160CF4BBC0C701B6010E944936962E88
:101B50001982E090E506F090E606D70114968D9183
:101B60009C911597892B09F41AC18C9191E090935F
:101B7000FE04809320051092FF041092210520E0BE
:101B800041E050E0BE016F5F7F4FC7010E946105D9
:101B9000882309F404C18824839485EC382EF70146
:101BA000C480D58001E0C114D10409F400E0A02E66
:101BB000B12CD7012C900E946E022B013C01809128
:101BC000F804811182C0102F8092F8040093F7046A
:101BD000BFEFB093F6041092F5048FEF800F80935F
:101BE000F4048092D3048091D304220C282A2092FA
:101BF000D3048091D204813009F0A8C01092D2049D
:101C00000E946E022B013C018091D3048093BB00A3
:101C10008091FA049091FB04A091FC04B091FD0422
:101C2000892B8A2B8B2BA1F00E946E022091FA0443
:101C30003091FB044091FC045091FD046419750936
:101C400086099709261737074807590708F45EC021
:101C50008091BC0083FDD8CF3092BC000E946E0200
:101C60002B013C018091F804813009F473C080910C
:101C7000F504801710F41091F504E4EDF4E0A2EB04
:101C8000B4E080E0811709F446C091919D938F5F85
:101C9000F9CFC12CD12C40E8E42E4FE3F42E18CF1D
:101CA000C12C30ECD32E3AE5E32E35E4F32E10CFE1
:101CB000C12CD12C20E4E22EFE2C45CFC12CD12CFE
:101CC0009FE7E92E93E4F92E3ECF8091FA0490919C
:101CD000FB04A091FC04B091FD04892B8A2B8B2B73
:101CE00009F46DCF0E946E022091FA043091FB043A
:101CF0004091FC045091FD04641975098609970907
:101D0000261737074807590708F059CF8091F9047B
:101D10000E94500410E01092B1041093B0041A1500
:101D20001B04E9F590E080E08A159B05A8F5D70132
:101D300011968D919C91DC01ED91FC910284F385CB
:101D4000E02D0995898381E090E0EECFE5EEE09308
:101D5000BC0084CF8091FA049091FB04A091FC0414
:101D6000B091FD04892B8A2B8B2B09F47BCF0E9429
:101D70006E022091FA043091FB044091FC045091D2
:101D8000FD0464197509860997092617370748075E
:101D9000590708F067CFBACFCD2809F400CF1981D1
:101DA000612F6F76606180E00E94160D692D8EEFC5
:101DB0000E94160D612F80E00E94160D65E070E014
:101DC00080E090E00E949302612F606A80E00E94B0
:101DD000160D0F90DF91CF911F910F91FF90EF9013
:101DE000DF90CF90BF90AF909F908F907F906F903B
:101DF0005F904F903F902F90089542E050E062EE48
:101E000072E082E196E00C94C502CF93DF930E94CA
:101E1000B203EC010E94FD0E8C0F9D1FDF91CF914C
:101E200008950F931F930091C0061091C106209151
:101E3000C2063091C30640E052E16AE770E080E0FC
:101E4000041715072607370740F4769567955795C9
:101E500047958F5F8630A1F787E0982F906A969517
:101E6000809581709CBD8DBD80E01F910F910C9479
:101E70005702CF93DF93D82FC62F0E94110F8D2FBB
:101E800080620E94ED038093C4068C2F0E94ED03B4
:101E9000DF91CF910C946B026091D00661FD0AC076
:101EA00062606093D00680E00E94390F8BE19EE46F
:101EB0000197F1F70895CF93C82F0E94110F8C2F2F
:101EC0000E94ED038093C4068FEF0E94ED03C82F9C
:101ED0000E946B028C2FCF910895CF93DF93EC017A
:101EE00086E00E945B0F877D2297E1F045E550E098
:101EF00060E070E04093D9065093DA066093DB0609
:101F00007093DC06C0E0C82B6C2F86E00E94390F6E
:101F100086E00E945B0F91E0C81390E0892FDF916B
:101F2000CF9108954BE950E060E070E04093D9060E
:101F30005093DA066093DB067093DC06C0E2E3CFD1
:101F4000FF920F931F93CF93DF93C82FF62E072F87
:101F5000142F0E94110F8C2F80620E94ED0380933A
:101F6000C406CF2DD02F115020F089910E94ED038F
:101F7000FACFDF91CF911F910F91FF900C946B02DC
:101F8000CF93C82F0E94110F8C2F0E94ED038093D6
:101F9000C406CF910C946B020E94110F80E50E9441
:101FA000ED038093C40683E70E94ED030C946B025B
:101FB00085ED8093BC008091FA049091FB04A09180
:101FC000FC04B091FD040796A11DB11D23E0B69558
:101FD000A795979587952A95D1F72091BC0024FD68
:101FE00003C01092F80408954091FA045091FB0444
:101FF0006091FC047091FD04452B462B472B69F33F
:102000000097A105B10541F02AE22A95F1F700C039
:102010000197A109B109E1CF8091F9040C94500412
:102020002F923F924F925F926F927F928F929F92E8
:10203000AF92BF92CF92DF92EF92FF920F931F93D6
:10204000CF93DF93CDB7DEB7C956D1090FB6F89459
:10205000DEBF0FBECDBF82EE95E0A2969FAF8EAFE2
:10206000A2978EEB282E81E0382EDE011196A096E5
:10207000BFAFAEAFA0978D016A961FAE6A97E9E435
:10208000F0E0EC0FFD1F3496A896FFAFEEAFA897D7
:1020900089E490E08C0F9D1F0896AA969FAF8EAFA3
:1020A000AA978CE0A296EEADFFADA297DE01DD9679
:1020B00001900D928A95E1F78CE0FE01FD96DE011C
:1020C000D19601900D928A95E1F7D1011896CD90A5
:1020D000DD90ED90FC901B97C701B6010E94D235B0
:1020E0004B015C01C701B6010E949C386B017C0169
:1020F000F101208131814281538169A97AA98BA99B
:102100009CA90E94F3346E966CAF7DAF8EAF9FAFEB
:102110006E97D10114962D913D914D915C91179739
:102120006DA97EA98FA998AD0E94F3342B013C01C3
:102130006E962CAD3DAD4EAD5FAD6E97C501B40151
:102140000E94D03369966CAF7DAF8EAF9FAF699719
:10215000A3019201C701B6010E94D0339B01AC01DB
:1021600069966CAD7DAD8EAD9FAD69970E94F434DC
:1021700069966CAF7DAF8EAF9FAF69970E94BD0629
:10218000882309F444C1C701B60190586E962CAD5E
:102190003DAD4EAD5FAD6E970E94D0336B017C01BB
:1021A000A3019201C501B4010E94D0339B01AC018F
:1021B000C701B6010E94F4346B017C010E94BD0688
:1021C000882309F424C149AC5AAC6BAC7CACC30184
:1021D000B2010E94BD06882309F419C169962CAD8D
:1021E0003DAD4EAD5FAD6997CA01B9010E94D033D4
:1021F0004B015C01A7019601C701B6010E94D033D3
:102200009B01AC01C501B4010E94F4340E94AA38BC
:102210004B015C012DEB37E346E855E30E946A333E
:1022200018160CF0F4C02EE03DE249E252E4C5017C
:10223000B4010E94F3346E966CAF7DAF8EAF9FAF4A
:102240006E979B01AC010E94D0334B015C01A3014E
:102250009201C301B2010E94D0339B01AC01C501C0
:10226000B4010E94F4340E94AA384B015C0120EFB3
:1022700032ED40EE51E40E946A3387FDC8C023E38B
:1022800033E545E153E4C501B4010E94E83718166F
:102290000CF4BDC0A5019401C501B4010E94D03366
:1022A00028E13BE945E655E40E94F33423E631EFAB
:1022B00045EF55E40E94F3342AE538E048E256E45D
:1022C0000E94D7354B015C0120E030E040E85FEB35
:1022D0000E946A3387FD9BC020E030E040E85FE366
:1022E000C501B4010E94E83718160CF490C0C5016E
:1022F000B4010E94E2344B015C01DC01CB01B05817
:10230000A6968CAF9DAFAEAFBFAFA69769962CAD2A
:102310003DAD4EAD5FAD6997C701B6010E94733503
:1023200069966CAF7DAF8EAF9FAF69976E962CADFF
:102330003DAD4EAD5FAD6E97C301B2010E947335E6
:102340006B017C01C501B4010E94D2354B015C01D7
:10235000A6966CAD7DAD8EAD9FADA6970E949C38C4
:102360002B013C0121E93DE641EB52E4C501B401FA
:102370000E94D0332AEA31E742E752E40E94F43463
:102380004B015C0121E93DE641EB52E4C301B2019E
:102390000E94D033A50194010E9473354B015C016A
:1023A0009E01275B3F4F69964CAD5DAD6EAD7FAD35
:1023B00069976A968FAD6A970E94C606882339F19D
:1023C000A5019401C701B6010E94F334AB01BC0121
:1023D000A8962EAD3FADA8976A968FAD6A978F5F8E
:1023E0000E94C606882399F0AA962EAD3FADAA9703
:1023F000A6964CAD5DAD6EAD7FADA6976A968FADDE
:102400006A978E5F0E94C606F82E81111CC0F12CBF
:102410008F2DC759DF4F0FB6F894DEBF0FBECDBF6B
:10242000DF91CF911F910F91FF90EF90DF90CF90B0
:10243000BF90AF909F908F907F906F905F904F90E4
:102440003F902F900895FE01E75BFF4FCF010C9660
:10245000D80141915191619171914D935D936D932B
:102460007D93E817F907A9F7A296AEADBFADA29785
:102470001C96A296BFAFAEAFA297BCE02B0E311C4C
:10248000045F1F4F6A96EFAD6A97ED5F6A96EFAFF4
:102490006A97EC3009F005CE10E0A096AEADBFAD66
:1024A000A0976D917D918D919D91A096BFAFAEAF9C
:1024B000A09720E030E048EC53E40E94D03320E0C5
:1024C00030E044E353E40E94D73520E030E04CEDA7
:1024D00052E40E94F43420E030E040E05FE30E94E8
:1024E000F4340E944936812F0E949E0C1F5F1C30DD
:1024F000A1F660E070E18CE00E949E0C81E0809388
:10250000000486CF2F923F924F925F926F927F92FC
:102510008F929F92AF92BF92CF92DF92EF92FF92F3
:102520000F931F93CF93DF93CDB7DEB76F970FB69F
:10253000F894DEBF0FBECDBF633008F458C1EA8EF9
:10254000FB8E0C8F1D8F2E8B3F8B488F598F6F8387
:102550001C019C838B838C0121E030E03E832D8322
:10256000C12CD12C7601862F90E0998788878CE04A
:10257000982E8D819E81688579850E941539989E57
:102580005001999EB00C1124A20CB31CD5011496D5
:102590002D913D914D915C911797F801608171816A
:1025A000828193810E94D0332B013C01D801149683
:1025B0002D913D914D915C911797F501608171814D
:1025C000828193810E94D0339B01AC01C301B2018F
:1025D0000E94F3349B01AC01C701B6010E94F434A0
:1025E0006B017C012D813E812F5F3F4F3E832D8308
:1025F000045F1F4F822F81503F81831708F4B9CFAA
:102600002CEA35EC47E257E3C701B6019F770E94F9
:102610006A3387FDF3C020E030E0A901C701B601AD
:102620000E94E83718160CF4DDC080E090E0A0E8C6
:10263000BFEB8A8B9B8BAC8BBD8BA1E0B0E0BE83E4
:10264000AD8310E000E0B0E8B983EFE7EA838D8165
:102650009E81688579850E9415394CE0489F9001DC
:10266000499F300D1124220D331D3F8F2E8FAB81DA
:10267000BC818D919D910D90BC91A02D8A879B87E7
:10268000AC87BD879C01AD01EE8DFF8D60817181AE
:10269000828193810E94F3346B017C01AB81BC8108
:1026A00014968D919D910D90BC91A02D8E879F8742
:1026B000A88BB98B9C01AD01EE8DFF8D6481758176
:1026C000868197810E94F3342B013C01A70196017A
:1026D000C701B6010E94D0334B015C01A3019201F6
:1026E000C301B2010E94D0339B01AC01C501B4010A
:1026F0000E94F4340E94AA384B015C012DEB37E3B1
:1027000046E855E30E946A3387FD3FC02E853F852A
:10271000488959896A8D7B8D8C8D9D8D0E94F334FB
:10272000A70196010E94D0336B017C012A853B856D
:102730004C855D856E897F89888D998D0E94F334E3
:10274000A30192010E94D0339B01AC01C701B601E5
:102750000E94F3342A893B894C895D890E94D033D9
:10276000A50194010E94D7357B018E879A87212F7E
:10277000302F49815A810E946A3387FF06C01E2D7F
:102780000F2DFE85F9832A852A838D819E810196EE
:102790009E838D83AB81BC811C96BC83AB838D8172
:1027A0008150BF818B1708F452CF612F702F898120
:1027B0009A816F960FB6F894DEBF0FBECDBFDF9142
:1027C000CF911F910F91FF90EF90DF90CF90BF902E
:1027D000AF909F908F907F906F905F904F903F90C1
:1027E0002F90089580E090E0A0E8BFE322CF10E0B2
:1027F00000E0E0E8E983FFEFFA83D7CF10E000E0E4
:1028000020E829833FEF3A83D0CF2F923F924F9217
:102810005F926F927F928F929F92AF92BF92CF9270
:10282000DF92EF92FF920F931F93CF93DF93CDB779
:10283000DEB766970FB6F894DEBF0FBECDBFEBA52F
:10284000FCA51082118212821382F401108211827F
:1028500012821382633008F4EFC09E8A8D8AA98A9F
:10286000BA8ACB8ADC8AED86FE860F87188B298789
:102870003A874B875C87362E9D83282E0E948212D2
:1028800069837A838B839C830E94BD06182F8823DB
:1028900009F4B8C0A601950169817A818B819C8178
:1028A0000E94E83787FFC8C0E22CFD80812C912C64
:1028B000540124013501D12CF7012081318142815D
:1028C0005381C301B2010E94F4342B013C01F70192
:1028D0002481358146815781C501B4010E94F434B9
:1028E0004B015C01D394FCE0EF0EF11C3D10E4CFF2
:1028F000632D70E090E080E00E9471336B017C01F9
:10290000AC019B01C301B2010E94D7352B013C01F0
:10291000A7019601C501B4010E94D7354B015C01A6
:102920008C017B01A3019201632D822D9D810E9468
:1029300082126B017C010E94BD06182F882309F4C6
:1029400061C0A701960169817A818B819C810E9477
:10295000E83787FF71C0A701960169897A898B8959
:102960009C890E94AE3629813A814B815C810E940C
:10297000F3346D837E838F83988729813A814B81DD
:102980005C81C701B6010E94F3349B01AC016D81EB
:102990007E818F8198850E94D7359B01AC0160E0D4
:1029A00070E080E89FE30E94AE369B01AC0160E0DE
:1029B00070E0CB010E948F366B017C0129853A853E
:1029C0004B855C85C301B2010E94F334A7019601D7
:1029D0000E94D033ED89FE89608371838283938363
:1029E0002D853E854F855889C501B4010E94F33479
:1029F000A70196010E94D033EBA5FCA560837183EB
:102A000082839383812F66960FB6F894DEBF0FBE44
:102A1000CDBFDF91CF911F910F91FF90EF90DF908D
:102A2000CF90BF90AF909F908F907F906F905F906E
:102A30004F903F902F90089510E0E4CFCF92DF9217
:102A4000EF92FF9220E030E040E85FE30E94D8364A
:102A50006B017C0120E030E0A9010E946A3387FF0E
:102A60000AC020E030E040E85FE3C701B6010E9401
:102A7000F4346B017C0120E030E543EC57E4C701FE
:102A8000B6010E94D03320E030E040E05FE30E94D6
:102A9000F4340E94783620E030E543EC57E40E949D
:102AA000D735FF90EF90DF90CF9008952F923F920F
:102AB0004F925F926F927F928F929F92AF92BF924E
:102AC000CF92DF92EF92FF920F931F93CF93DF93FA
:102AD000CDB7DEB7C850D1400FB6F894DEBF0FBEF9
:102AE000CDBFC556DF4F688379838A839B83CB59DB
:102AF000D040CD55DF4F288339834A835B83C35A47
:102B0000D04027013801CD54DF4FA882B982CA8254
:102B1000DB82C35BD0408090260590902705A09073
:102B20002805B0902905A50194010E94F3346B019A
:102B30007C012AE037ED43EA5DE30E94E83718168E
:102B400014F00C94F51F2AE037ED43EA5DE3C5016C
:102B5000B4010E94F434C556DF4F688379838A83B9
:102B60009B83CB59D040C556DF4F288139814A819C
:102B70005B81CB59D04020932605309327054093A5
:102B8000280550932905C0902205D0902305E09098
:102B90002405F0902505A7019601CD55DF4F6881EA
:102BA00079818A819B81C35AD0400E94F3344B01C2
:102BB0005C012AE037ED43EA5DE30E94E83718162E
:102BC00014F00C940B202AE037ED43EA5DE3C701D3
:102BD000B6010E94F434CD55DF4F688379838A8330
:102BE0009B83C35AD040CD55DF4F88819981AA81FC
:102BF000BB81C35AD0408093220590932305A093B4
:102C00002405B0932505C090D605D090D705E09057
:102C1000D805F090D905A7019601C301B2010E9421
:102C2000F3344B015C012AE037ED43EA5EE30E9496
:102C3000E837181614F00C9421202AE037ED43EA07
:102C40005EE3C701B6010E94F4342B013C01A701E9
:102C50009601C301B2010E94F3347B018C0120E094
:102C600030E0A901CA01B9010E94DB07C0902A0522
:102C7000D0902B05E0902C05F0902D05A701960132
:102C8000CD54DF4F688179818A819B81C35BD040BD
:102C90000E94F3344B015C012AE037ED43E25EE32E
:102CA0000E94E837181614F00C9437202AE037ED0C
:102CB00043E25EE3C701B6010E94F434CD54DF4F16
:102CC000688379838A839B83C35BD040CD54DF4F75
:102CD000288139814A815B81C35BD04020932A05DA
:102CE00030932B0540932C0550932D0540902E05D5
:102CF00050902F0560903005709031054CE151E007
:102D0000C552DF4F59834883CB5DD0407A01CD5304
:102D1000DF4F1882C35CD04011E0C556DF4F1882E8
:102D2000CB59D040CD55DF4F1882C35AD040C9553A
:102D3000DF4F1882C75AD04050E4C555DF4F588343
:102D4000CB5AD04000E0D7016D917D918D919D913E
:102D50007D01A30192010E94F4340E941E154B01D3
:102D60005C012DEB37E346E855E3C35DDE4F688138
:102D700079818A819B81CD52D1400E94F334CD5418
:102D8000DF4F688379838A839B83C35BD0409B0139
:102D9000AC01C501B4010E946A3387FD02C00C94E6
:102DA0004D20A5019401C35DDE4F688179818A8140
:102DB0009B81CD52D1400E94F3345B016C01C5561A
:102DC000DF4F2881CB59D040CD55DF4F3881C35AD2
:102DD000D040C955DF4F4881C75AD040C555DF4F55
:102DE0005881CB5AD0400E946A3387FF02C00C94AE
:102DF00050200F5F043009F0A6CFC090D205D090CC
:102E0000D305E090D405F090D505C701B6010E9426
:102E1000D235C154DF4F688379838A839B83CF5B2C
:102E2000D040C701B6010E949C382B013C01112300
:102E300009F433C220E937ED43EA5DE3C556DF4FBD
:102E40006881CB59D040CD55DF4F7881C35AD040EF
:102E5000C955DF4F8881C75AD040C555DF4F98818B
:102E6000CB5AD0400E946A3318160CF416C220E0E8
:102E700030E0A901C556DF4F6881CB59D040CD5510
:102E8000DF4F7881C35AD040C955DF4F8881C75A78
:102E9000D040C555DF4F9881CB5AD0400E94E837CB
:102EA00018160CF0FAC12091D6053091D705409143
:102EB000D8055091D905C953DF4F288339834A83F8
:102EC0005B83C75CD0408091DA059091DB05A091CF
:102ED000DC05B091DD05C156DF4F88839983AA8355
:102EE000BB83CF59D0402091DE053091DF05409162
:102EF000E0055091E105C954DF4F288339834A83A7
:102F00005B83C75BD04032EE232E35E0332E8E013B
:102F10000F5F1F4FAE014F5C5F4FC756DF4F5983A6
:102F20004883C959D040D1018D909D90AD90BC90FF
:102F300013971496CD90DD90ED90FC90179718960E
:102F40002D913D914D915C911B97C554DF4F288386
:102F500039834A835B83CB5BD040C154DF4F2881E8
:102F600039814A815B81CF5BD040C501B4010E94A9
:102F7000D033C954DF4F288139814A815B81C75BD7
:102F8000D0400E94F434C153DF4F688379838A8331
:102F90009B83CF5CD040A3019201C701B6010E9480
:102FA000D0339B01AC01C153DF4F688179818A81A5
:102FB0009B81CF5CD0400E94F334F8016083718321
:102FC00082839383A3019201C501B4010E94D0338F
:102FD000C156DF4F288139814A815B81CF59D0406A
:102FE0000E94F4344B015C01C154DF4F28813981C8
:102FF0004A815B81CF5BD040C701B6010E94D033CC
:103000009B01AC01C501B4010E94F434D8011496AF
:103010006D937D938D939C931797C953DF4F2881B0
:1030200039814A815B81C75CD040C554DF4F6881DC
:1030300079818A819B81CB5BD0400E94F434F80176
:103040006087718782879387FCE02F0E311C045FB5
:103050001F4FC756DF4F28813981C959D0402017EB
:10306000310709F060CF8AEB92E04EEB52E020E0AE
:103070003CE0DC016D91CD01CD53DF4FB881C35CE5
:10308000D0406B17B9F0A1E0B0E0AC0FBD1F329F8C
:10309000A00DB11D1124D096E1E0F0E0EC0FFD1F72
:1030A000369FE00DF11D1124632F01900D926A955A
:1030B000E1F72F5F48175907E1F6CF56DF4F188227
:1030C00019821A821B82C159D0401E01E1E62E0EE0
:1030D000311CD1011D921D921D921C921397A301C8
:1030E0009201CF5CDE4F688179818A819B81C153D7
:1030F000D1400E94D033C156DF4F288139814A81A7
:103100005B81CF59D0400E94F4346B017C01C154E3
:10311000DF4F288139814A815B81CF5BD040CB5C16
:10312000DE4F688179818A819B81C553D1400E949D
:10313000D0339B01AC01C701B6010E94F434CD53DA
:10314000DF4F688379838A839B83C35CD040C154FB
:10315000DF4F288139814A815B81CF5BD040CF5CD2
:10316000DE4F688179818A819B81C153D1400E9461
:10317000D033C954DF4F288139814A815B81C75BD5
:10318000D0400E94F4346B017C01A3019201CB5C1E
:10319000DE4F688179818A819B81C553D1400E942D
:1031A000D0339B01AC01C701B6010E94F3349B01EF
:1031B000AC013F922F92FE01EF56FF4F4F01C75CCB
:1031C000DE4FA880B980CA80DB80C953D140CD537F
:1031D000DF4FE880F9800A811B81C35CD04063E047
:1031E000CE01C1960E9405140F900F90882309F418
:1031F00054C0C556DF4F2881CB59D040CD55DF4F45
:103200003881C35AD040C955DF4F4881C75AD04092
:10321000C555DF4F5881CB5AD040C75DDE4F68811E
:1032200079818A819B81C952D1400E94D0339B0110
:10323000AC016AE077ED83E29DE30E948F369B014B
:10324000AC016AE077ED83E29DE30E94D7359B01F4
:10325000AC0160E070E080E89FE30E94AE366B0155
:103260007C01D1012D913D914D915C910E94D03313
:103270004B015C01CF56DF4F288139814A815B8148
:10328000C159D040C701B6010E94D033E12CF12CC6
:103290008701A50194010E94DB0720912E05309142
:1032A0002F054091300550913105C352DF4F2883DF
:1032B00039834A835B83CD5DD040C75DDE4F288173
:1032C00039814A815B81C952D1406AE077ED83E25E
:1032D0009DE30E94D735C555DF4F688379838A8384
:1032E0009B83CB5AD0409B01AC01C352DF4F688116
:1032F00079818A819B81CD5DD0400E94F4340E9407
:103300001E15C153DF4F688379838A839B83CF5C0B
:10331000D0408091D2059091D305A091D405B09171
:10332000D505C955DF4F88839983AA83BB83C75AC4
:10333000D0402091D6053091D7054091D8055091C5
:10334000D905C954DF4F288339834A835B83C75B20
:10335000D0408091DA059091DB05A091DC05B09119
:10336000DD05C154DF4F88839983AA83BB83CF5B7C
:10337000D0402091DE053091DF054091E00550916D
:10338000E105CD53DF4F288339834A835B83C35CD8
:10339000D040C955DF4F688179818A819B81C75AA6
:1033A000D0400E94D2352B013C01C955DF4F6881C6
:1033B00079818A819B81C75AD0400E949C38C1562E
:1033C000DF4F688379838A839B83CF59D04042EE55
:1033D00055E0CD55DF4F59834883C35AD040CE01C5
:1033E0008F599F4FC556DF4F99838883CB59D04063
:1033F000C096C554DF4F99838883CB5BD040C556B8
:10340000DF4F08811981CB59D0401A01D1018D902D
:103410009D90AD90BC9013971496CD90DD90ED905B
:10342000FC90179718962D913D914D915C911B97AB
:10343000C155DF4F288339834A835B83CF5AD040FD
:10344000A5019401C301B2010E94D033CD53DF4FD7
:10345000288139814A815B81C35CD0400E94F43469
:10346000C953DF4F688379838A839B83C75CD040CD
:10347000C156DF4F288139814A815B81CF59D040C5
:10348000C701B6010E94D0339B01AC01C953DF4F85
:10349000688179818A819B81C75CD0400E94F33426
:1034A000F8016083718382839383A5019401C156DF
:1034B000DF4F688179818A819B81CF59D0400E94FA
:1034C000D033C154DF4F288139814A815B81CF5B82
:1034D000D0400E94F4344B015C01A3019201C7016A
:1034E000B6010E94D0339B01AC01C501B4010E941A
:1034F000F434D80114966D937D938D939C93179714
:10350000C155DF4F288139814A815B81CF5AD04034
:10351000C954DF4F688179818A819B81C75BD04024
:103520000E94F434F8016087718782879387FCE0FA
:103530002F0E311C045F1F4FC554DF4F2881398186
:10354000CB5BD0402017310709F060CF20912205D6
:10355000309123054091240550912505CB5DDE4F28
:10356000688179818A819B81C552D1400E94D03384
:10357000C156DF4F688379838A839B83CF59D040BC
:103580009B01AC01C555DF4F688179818A819B81A0
:10359000CB5AD0400E94D0332BED3FE049E450E4B9
:1035A0000E94D03320E030E044E353E40E94D7355A
:1035B0006B017C0120E030E040E05FE30E94D0330B
:1035C000C955DF4F288139814A815B81C75AD04074
:1035D0000E94F434C954DF4F688379838A839B83C4
:1035E000C75BD040209126053091270540912805E2
:1035F00050912905C35EDE4F688179818A819B8164
:10360000CD51D1400E94D0332B013C01AC019B0134
:10361000C555DF4F688179818A819B81CB5AD04023
:103620000E94D0334B015C01C954DF4F688179811E
:103630008A819B81C75BD0400E949C389B01AC0172
:10364000C501B4010E94D0339B01AC01CD53DF4FC3
:10365000688179818A819B81C35CD0400E94F33468
:103660006093DE057093DF058093E0059093E1059C
:10367000C954DF4F688179818A819B81C75BD040C3
:103680000E94D2359B01AC01C501B4010E94D03328
:10369000C154DF4F288139814A815B81CF5BD040A3
:1036A0000E94F4346093DA057093DB058093DC05A7
:1036B0009093DD05A7019601C955DF4F6881798197
:1036C0008A819B81C75AD0400E94F4346093D2050E
:1036D0007093D3058093D4059093D5052BED3FE0EF
:1036E00049E450E4C156DF4F688179818A819B812A
:1036F000CF59D0400E94D03320E030E044E353E47F
:103700000E94D7356B017C0120E030E040E05FE3B0
:103710000E94D033C955DF4F288139814A815B81AE
:10372000C75AD0400E94F4344B015C010E949C387F
:103730009058A30192010E94D033CF50DF4F68838D
:1037400079838A839B83C15FD040C501B4010E9405
:10375000D2359B01AC01C301B2010E94D033CB50E2
:10376000DF4F688379838A839B83C55FD040C7011D
:10377000B6010E94D235CF51DF4F688379838A83A7
:103780009B83C15ED040C701B6010E949C38CB51DB
:10379000DF4F688379838A839B83C55ED04042EA8A
:1037A00055E0C555DF4F59834883CB5AD04082E35B
:1037B00095E0C954DF4F99838883C75BD040A2E767
:1037C000B5E0C955DF4FB983A883C75AD04022E47A
:1037D000222E25E0322EC552DF4FE881F981CB5DE4
:1037E000D04081909190A190B190C552DF4FF98364
:1037F000E883CB5DD040A5019401C352DF4F6881BF
:1038000079818A819B81CD5DD0400E94F4340E94F1
:103810001E156B017C01A5019401C153DF4F688126
:1038200079818A819B81CF5CD0400E94F4340E94D0
:103830001E15C156DF4F688379838A839B83CF59D6
:10384000D040A7019601CD54DF4F688179818A81EC
:103850009B81C35BD0400E94E837C156DF4F28816F
:1038600039814A815B81CF59D04018160CF033C49E
:10387000CD54DF4F688179818A819B81C35BD040C1
:103880000E94E83718160CF451C48CE0C556DF4F7F
:10389000E881F981CB59D040C955DF4FA881B98162
:1038A000C75AD04001900D928A95E1F7CD53DF4F72
:1038B000288139814A815B81C35CD040C556DF4F86
:1038C000A881B981CB59D0406D917D918D919C910A
:1038D0000E94F3344B015C01C154DF4F28813981D0
:1038E0004A815B81CF5BD040C556DF4FE881F981CB
:1038F000CB59D04064817581868197810E94F334D1
:103900006B017C01C556DF4FA881B981CB59D040EE
:1039100018962D913D914D915C911B97C155DF4FAC
:10392000288339834A835B83CF5AD040CF50DF4FFF
:10393000288139814A815B81C15FD040CD53DF4FFF
:10394000688179818A819B81C35CD0400E94F43474
:103950002B013C01A5019401CF51DF4F6881798192
:103960008A819B81C15ED0400E94D0339B01AC0113
:10397000C301B2010E94F4342B013C01A70196015E
:10398000CB51DF4F688179818A819B81C55ED040B0
:103990000E94D0339B01AC01C301B2010E94F334F9
:1039A000F1016083718382839383CB50DF4F288141
:1039B00039814A815B81C55FD040C154DF4F688146
:1039C00079818A819B81CF5BD0400E94F4342B01A6
:1039D0003C01A5019401CB51DF4F688179818A8137
:1039E0009B81C55ED0400E94D0339B01AC01C301D6
:1039F000B2010E94F4344B015C01A7019601CF5142
:103A0000DF4F688179818A819B81C15ED0400E94AD
:103A1000D0339B01AC01C501B4010E94F434D10143
:103A200014966D937D938D939C931797C155DF4F9B
:103A3000288139814A815B81CF5AD04018962D93D5
:103A40003D934D935C931B97C156DF4F288139817D
:103A50004A815B81CF59D040CD54DF4F6881798155
:103A60008A819B81C35BD0400E94E83718160CF412
:103A70005DC32091DA053091DB054091DC05509162
:103A8000DD05C751DF4F288339834A835B83C95ED5
:103A9000D0408091DE059091DF05A091E005B091C6
:103AA000E105C351DF4F88839983AA83BB83CD5E31
:103AB000D040C35DDE4F288139814A815B81CD5280
:103AC000D140C156DF4F688179818A819B81CF596E
:103AD000D0400E94F3346B017C01C35DDE4F28812E
:103AE00039814A815B81CD52D14060E070E080E84D
:103AF0009FE30E94F3349B01AC01C701B6010E9411
:103B0000D735C156DF4F6883CF59D040C155DF4FFD
:103B10007883CF5AD040C554DF4F8883CB5BD040E9
:103B2000C953DF4F9883C75CD040D10114962D91C3
:103B30003D914D915C911797CD52DF4F288339838A
:103B40004A835B83C35DD040C751DF4F28813981F1
:103B50004A815B81C95ED040CD52DF4F6881798157
:103B60008A819B81C35DD0400E94F3342B013C01CC
:103B7000D1012D913D914D915C91C952DF4F288328
:103B800039834A835B83C75DD040C351DF4F2881AF
:103B900039814A815B81CD5ED040C952DF4F688157
:103BA00079818A819B81C75DD0400E94F3344B01AB
:103BB0005C01A30192010E94FB376B017C012DEB9C
:103BC00037E346E855E30E94E83718160CF0CCC6F8
:103BD000A7019601C501B4010E94D7354B015C01D4
:103BE000A7019601C301B2010E94D7352B013C0108
:103BF000C954DF4FE881F981C75BD0402081318112
:103C00004281538160912A0570912B0580912C058A
:103C100090912D050E94F3346B017C01A501940164
:103C20000E94D033C952DF4F288139814A815B819C
:103C3000C75DD0400E94F434C952DF4F6883798356
:103C40008A839B83C75DD040A3019201C701B6015F
:103C50000E94D033CD52DF4F288139814A815B8168
:103C6000C35DD0400E94F434C750DF4F688379832E
:103C70008A839B83C95FD0404090D2055090D30582
:103C80006090D4057090D5052091D6053091D70568
:103C90004091D8055091D905C350DF4F288339830F
:103CA0004A835B83CD5FD040C955DF4FA881B9817E
:103CB000C75AD0408D909D90AD90BC9013971496AC
:103CC0002D913D914D915C911797CD52DF4F2883F7
:103CD00039834A835B83C35DD04018962D913D9113
:103CE0004D915C911B97CF5FDE4F288339834A83C8
:103CF0005B83C150D14020E030E0A901C156DF4FC5
:103D00006881CF59D040C155DF4F7881CF5AD0401C
:103D1000C554DF4F8881CB5BD040C953DF4F9881BA
:103D2000C75CD0400E946A3387FD24C620E030E0A3
:103D300040E85FE3C156DF4F6881CF59D040C1559D
:103D4000DF4F7881CF5AD040C554DF4F8881CB5B9D
:103D5000D040C953DF4F9881C75CD0400E94E837FC
:103D600018160CF00CC6E12CF12C00E81FE39701AB
:103D7000A801B701C8010E94F4349B01AC0160E0C6
:103D800070E080E490E40E94F334CB5FDE4F688300
:103D900079838A839B83C550D1409701A801B701DD
:103DA000C8010E94D0339B01AC01CB5FDE4F68811C
:103DB00079818A819B81C550D1400E94D0336B01AB
:103DC0007C012BED3FE049E450E4C156DF4F6881B0
:103DD000CF59D040C155DF4F7881CF5AD040C5541C
:103DE000DF4F8881CB5BD040C953DF4F9881C75CE0
:103DF000D0400E94D0330E949C38C155DF4F688369
:103E000079838A839B83CF5AD040C301B2010E9439
:103E1000D235C156DF4F688379838A839B83CF591C
:103E2000D040C301B2010E949C382B013C01A50186
:103E30009401C952DF4F688179818A819B81C75D76
:103E4000D0400E94F334A70196010E94D033A5010F
:103E500094010E94F434C351DF4F288139814A8193
:103E60005B81CD5ED0400E94F3344B015C01CD52AA
:103E7000DF4F288139814A815B81C35DD040C750C3
:103E8000DF4F688179818A819B81C95FD0400E9420
:103E9000F334A70196010E94D033CD52DF4F288121
:103EA00039814A815B81C35DD0400E94F434C7519F
:103EB000DF4F288139814A815B81C95ED0400E94F1
:103EC000F3346B017C01A5019401C156DF4F688179
:103ED00079818A819B81CF59D0400E94D033C554CB
:103EE000DF4F688379838A839B83CB5BD040A701B4
:103EF0009601C301B2010E94D0339B01AC01C554AD
:103F0000DF4F688179818A819B81CB5BD0400E94A1
:103F1000F434CD55DF4FE881F981C35AD040608336
:103F2000718382839383C301B2019058A5019401E8
:103F30000E94D0334B015C01A7019601C156DF4FAF
:103F4000688179818A819B81CF59D0400E94D0338A
:103F50009B01AC01C501B4010E94F434CD55DF4F83
:103F6000A881B981C35AD04014966D937D938D93E7
:103F70009C931797C155DF4F288139814A815B8116
:103F8000CF5AD040CF5DDE4F688179818A819B8195
:103F9000C152D1400E94D033C155DF4F28813981B1
:103FA0004A815B81CF5AD0400E94D033CF5FDE4F31
:103FB000288139814A815B81C150D1400E94F4340B
:103FC000C350DF4F288139814A815B81CD5FD0406A
:103FD0000E94F334CD55DF4FE881F981C35AD040B8
:103FE00060877187828793876AC12AE037ED43EA49
:103FF0005DEBC701B6010E946A3387FD02C00C94D5
:10400000B3152AE037ED43EA5DE3C501B4010E9430
:10401000F3340C94AB152AE037ED43EA5DEBC501B0
:10402000B4010E946A3387FD02C00C94F3152AE0A4
:1040300037ED43EA5DE3C701B6010E94F3340C9407
:10404000EB152AE037ED43EA5EEBC501B4010E94AF
:104050006A3387FD02C00C9427162AE037ED43EA45
:104060005EE3C701B6010E94F3340C9425162AE0E2
:1040700037ED43E25EEBC501B4010E946A3387FD70
:1040800002C00C9466162AE037ED43E25EE3C701F6
:10409000B6010E94F3340C945E1610E00C94F916ED
:1040A000CD53DF4F0883C35CD040C556DF4FA88295
:1040B000CB59D040CD55DF4FB882C35AD040C955F7
:1040C000DF4FC882C75AD040C555DF4FD882CB5A80
:1040D000D0400C94F916CD54DF4F688179818A81E4
:1040E0009B81C35BD0400E94E83718160CF0ACCC23
:1040F0008CE0F101C555DF4FA881B981CB5AD04082
:1041000001900D928A95E1F780912A0590912B05F7
:10411000A0912C05B0912D05C954DF4FE881F9819C
:10412000C75BD04080839183A283B3838090D20504
:104130009090D305A090D405B090D505C501B401E9
:104140000E94D2356B017C01C501B4010E949C38EC
:10415000C156DF4F688379838A839B83CF59D040D0
:104160002091DE053091DF054091E0055091E10599
:10417000C555DF4FA881B981CB5AD0406D917D9153
:104180008D919C910E94F3344B015C012091DA05E2
:104190003091DB054091DC055091DD05C555DF4FC1
:1041A000E881F981CB5AD0406481758186819781FD
:1041B0000E94F3342B013C012091D6053091D705A4
:1041C0004091D8055091D905C555DF4FA881B981D7
:1041D000CB5AD04018966D917D918D919C911B97F3
:1041E0000E94F334C155DF4F688379838A839B83B0
:1041F000CF5AD040A5019401C701B6010E94D03327
:10420000C554DF4F688379838A839B83CB5BD0401F
:10421000A3019201C156DF4F688179818A819B8118
:10422000CF59D0400E94D0339B01AC01C554DF4F21
:10423000688179818A819B81CB5BD0400E94F43474
:10424000CD55DF4FE881F981C35AD0406083718337
:1042500082839383C156DF4F688179818A819B81F4
:10426000CF59D0409058A50194010E94D0334B0102
:104270005C01A3019201C701B6010E94D0339B01EA
:10428000AC01C501B4010E94F434CD55DF4FA881C3
:10429000B981C35AD04014966D937D938D939C93AE
:1042A0001797C155DF4F288139814A815B81CF5AE9
:1042B000D04018962D933D934D935C931B97C55515
:1042C000DF4F28813981CB5AD040245F3F4FC555FD
:1042D000DF4F39832883CB5AD040CD55DF4F4881FB
:1042E0005981C35AD040445F5F4FCD55DF4F59834A
:1042F0004883C35AD040C954DF4F88819981C75B36
:10430000D0400496C954DF4F99838883C75BD0405F
:10431000C955DF4FA881B981C75AD0401C96C955ED
:10432000DF4FB983A883C75AD040BCE02B0E311CA5
:10433000C556DF4FE881F981CB59D0403C96C55630
:10434000DF4FF983E883CB59D0402CE231E0C552EE
:10435000DF4F48815981CB5DD0402417350709F0E4
:104360003ACAC153DF4F88819981AA81BB81CF5C52
:10437000D04080932E0590932F05A0933005B093E5
:1043800031059AEB292E92E0392EC556DF4F18825F
:10439000CB59D040D1018D911D014090D205509054
:1043A000D3056090D4057090D5052091D605309145
:1043B000D7054091D8055091D905C154DF4F2883C6
:1043C00039834A835B83CF5BD0402091DA053091FB
:1043D000DB054091DC055091DD05C955DF4F288391
:1043E00039834A835B83C75AD0402091DE053091E0
:1043F000DF054091E0055091E105C555DF4F288369
:1044000039834A835B83CB5AD0403CE0839F800151
:104410001124F801EE51FA4F482F50E0CD53DF4FF1
:1044200059834883C35CD04080809180A280B38050
:10443000C480D580E680F78080859185A285B3858C
:10444000C156DF4F88839983AA83BB83CF59D0405D
:10445000C301B2010E94D235CD55DF4F6883798305
:104460008A839B83C35AD040C301B2010E949C3807
:104470002B013C01A1E0B0E0AC0FBD1F0A0F1B1FD8
:10448000F801F096C954DF4FF983E883C75BD04049
:10449000CD55DF4F288139814A815B81C35AD04095
:1044A000C501B4010E94D033C555DF4F2881398141
:1044B0004A815B81CB5AD0400E94F434C553DF4F10
:1044C000688379838A839B83CB5CD040A30192016C
:1044D000C701B6010E94D0339B01AC01C553DF4F29
:1044E000688179818A819B81CB5CD0400E94F334C2
:1044F000D801D0966D937D938D939C93D397A30110
:104500009201C501B4010E94D033C955DF4F288103
:1045100039814A815B81C75AD0400E94F4344B01F3
:104520005C01CD55DF4F288139814A815B81C35AB7
:10453000D040C701B6010E94D0339B01AC01C50138
:10454000B4010E94F434F80164AB75AB86AB97AB51
:10455000C156DF4F288139814A815B81CF59D040D4
:10456000C154DF4F688179818A819B81CF5BD040C4
:104570000E94F434D801D8966D937D938D939C93CB
:10458000DB97CD53DF4FE881F981C35CD040EE0F5C
:10459000FF1FEE0FFF1FE45EFE4F2081318142813D
:1045A0005381C153DF4F688179818A819B81CF5CC0
:1045B000D0400E94F4340E941E159B01AC01CD54E2
:1045C000DF4F688179818A819B81C35BD0400E94E3
:1045D000E837181624F5A1E0B0E0AC0FBD1FECE001
:1045E000C556DF4FF881CB59D040EF9FA00DB11DCC
:1045F00011248CE0C954DF4FE881F981C75BD040BA
:1046000001900D928A95E1F7C556DF4F2881CB596D
:10461000D0402F5FC556DF4F2883CB59D0404EEB9B
:1046200052E04215530509F0B5CECD55DF4F288134
:1046300039814A815B81C35AD040CF5CDE4F6881AB
:1046400079818A819B81C153D1400E94D033C55565
:10465000DF4F288139814A815B81CB5AD0400E944B
:10466000F4346B017C01A3019201CB5CDE4F6881C5
:1046700079818A819B81C553D1400E94D0339B01AF
:10468000AC01C701B6010E94F334CD54DF4F6883FB
:1046900079838A839B83C35BD040A3019201CF5C63
:1046A000DE4F688179818A819B81C153D1400E940C
:1046B000D033C955DF4F288139814A815B81C75A80
:1046C000D0400E94F4346B017C01CD55DF4F28812E
:1046D00039814A815B81C35AD040CB5CDE4F68810F
:1046E00079818A819B81C553D1400E94D0339B013F
:1046F000AC01C701B6010E94F4341B012C018C01EE
:104700007B01CD54DF4F288139814A815B81C35BB6
:10471000D040C556DF4F6881CB59D040CE010196BD
:104720000E9482126B017C010E94BD068823F1F079
:104730008090300190903101A0903201B09033010F
:10474000C501B4010E94BD06882341F0A70196016E
:10475000C501B4010E94AE366B017C01C0923001EC
:10476000D0923101E0923201F0923301CB56DF4F0B
:10477000188219821A821B82C559D0403E0151E924
:10478000650E711CD3011D921D921D921C921397F0
:104790007F926F92FE01EB56FF4F4F01C75CDE4FD9
:1047A000A880B980CA80DB80C953D14082017101E1
:1047B000CD54DF4F288139814A815B81C35BD04072
:1047C000C556DF4F6881CB59D040CE0101960E947B
:1047D00005140F900F90882391F0D3012D913D91F6
:1047E0004D915C91CB56DF4F688179818A819B81A5
:1047F000C559D040E12CF12C87010E94DB07C09005
:10480000D205D090D305E090D405F090D505C7012E
:10481000B6010E94D2354B015C01C701B6010E946E
:104820009C386B017C01AC019B01CF5CDE4F688141
:1048300079818A819B81C153D1400E94D0332091DC
:10484000DA053091DB054091DC055091DD050E94D1
:10485000F4342B013C01A5019401CB5CDE4F68814F
:1048600079818A819B81C553D1400E94D0339B01BD
:10487000AC01C301B2010E94F4342B013C01A5013B
:104880009401CF5CDE4F688179818A819B81C1531D
:10489000D1400E94D0332091DE053091DF05409158
:1048A000E0055091E1050E94F4344B015C01A70141
:1048B0009601CB5CDE4F688179818A819B81C553EB
:1048C000D1400E94D0339B01AC01C501B4010E94CC
:1048D000F3349B01AC0183017201C556DF4F68813F
:1048E000CB59D040CE0101960E9482126B017C010F
:1048F0000E94BD068823F1F080902C0190902D013C
:10490000A0902E01B0902F01C501B4010E94BD06F8
:10491000882341F0A7019601C501B4010E94AE367B
:104920006B017C01C0922C01D0922D01E0922E01EE
:10493000F0922F01C85FDE4F0FB6F894DEBF0FBEB6
:10494000CDBFDF91CF911F910F91FF90EF90DF903E
:10495000CF90BF90AF909F908F907F906F905F901F
:104960004F903F902F900895812C912C5401240159
:1049700035013EC9E12CF12C00E010E0F8C9C15628
:10498000DF4FE880CF59D040C155DF4FF880CF5A74
:10499000D040C554DF4F0881CB5BD040C953DF4FB7
:1049A0001881C75CD040E3C91F920F920FB60F92D7
:1049B00011242F933F938F939F93AF93BF93809135
:1049C000A4049091A504A091A604B091A7043091ED
:1049D000A30423E0230F2D3758F50196A11DB11D27
:1049E0002093A3048093A4049093A504A093A60409
:1049F000B093A7048091A8049091A904A091AA045F
:104A0000B091AB040196A11DB11D8093A8049093B1
:104A1000A904A093AA04B093AB04BF91AF919F9156
:104A20008F913F912F910F900FBE0F901F9018956F
:104A300026E8230F0296A11DB11DD2CF1F920F921F
:104A40000FB60F9211242F933F934F935F936F9361
:104A50007F938F939F93AF93BF93EF93FF9382E1E5
:104A600096E00E944303FF91EF91BF91AF919F9118
:104A70008F917F916F915F914F913F912F910F9007
:104A80000FBE0F901F9018951F920F920FB60F92A6
:104A900011242F938F939F93EF93FF93E09122061E
:104AA000F09123068081E0912806F091290682FD8D
:104AB0001BC0908180912B068F5F8F7320912C06F5
:104AC000821741F0E0912B06F0E0EE5EF94F958FF2
:104AD00080932B06FF91EF919F918F912F910F90D3
:104AE0000FBE0F901F9018958081F4CF1F920F92E8
:104AF0000FB60F9211242F933F934F935F936F93B1
:104B00007F938F939F93AF93BF93EF93FF93809186
:104B1000B900887F803609F44AC0F0F5883209F47C
:104B2000A7C018F5803109F49BC0B8F4882309F4B4
:104B3000F9C0883009F494C0FF91EF91BF91AF9113
:104B40009F918F917F916F915F914F913F912F91A5
:104B50000F900FBE0F901F901895883109F488C0F0
:104B6000803251F78093F60414C0803409F49DC05C
:104B700040F48033B9F38833F9F68093F60485EC7A
:104B8000B0C0803509F485C0883509F496C08834F2
:104B900099F60E94D80FD0CF883909F48CC038F527
:104BA000883729F050F4883611F0803729F683E0F1
:104BB0008093F8041092E30357C0883809F47BC04F
:104BC000803919F0803809F0B7CF8091E303803243
:104BD00008F071C0E091E30381E08E0F8093E3035E
:104BE0008091BB00F0E0ED53FC4F80833DC0803BE3
:104BF00039F0E0F4803A09F479C0883A09F09CCFA2
:104C000084E08093F8041092C2031092C103E091F3
:104C1000AE04F091AF0409958091C10381110FC0DA
:104C200081E08093C1031092A10309C0803C09F484
:104C3000A6CF883C09F4A3CF883B09F07DCFE09153
:104C4000C20381E08E0F8093C203F0E0EF55FC4F6A
:104C500080818093BB009091C2038091C10329C0E1
:104C60008091D3048093BB0085EC8093BC0064CF1B
:104C70009091F5048091F404981758F5E091F504AB
:104C800081E08E0F8093F504F0E0EC52FB4F8081C1
:104C9000E9CFE091F50481E08E0F8093F5048091D7
:104CA000BB00F0E0EC52FB4F80839091F5048091C3
:104CB000F4049817C8F285E8D8CFE091F50481E0B4
:104CC0008E0F8093F5048091BB00F0E0EC52FB4F17
:104CD00080838091F70481115CCF81E08093D204BE
:104CE00084EA8093BC001092F80426CF85EC809370
:104CF000BC001092F8048091E303803230F4E0911C
:104D0000E303F0E0ED53FC4F10826091E30370E0A9
:104D1000E091AC04F091AD0483EC93E0099510921E
:104D2000E3030ACF1092F60434CFE2E1F6E01382F7
:104D3000128288EE93E0A0E0B0E084839583A6839E
:104D4000B78322EC32E03183208325EC30E03587D5
:104D5000248724EC30E03787268720EC30E0318B45
:104D6000208B21EC30E0338B228B22EC30E0358B32
:104D7000248B26EC30E0378B268B118E128E138E0F
:104D8000148EE0EBF6E01382128284839583A6836F
:104D9000B78384ED92E091838083A2EEB6E080E455
:104DA0008C931296FC93EE93119714961C921E927C
:104DB0001397ECEBF6E089E082838AE0838380E856
:104DC00096E9A8E9B0E084839583A683B78380E25F
:104DD0008187158A168A85E0808F81E0818F128E07
:104DE00085E090E0A0E0B0E081A392A3A3A3B4A3E8
:104DF0008FEA96E0918380830895CF93DF93CDB7B8
:104E0000DEB7EF970FB6F894DEBF0FBECDBF789434
:104E100084B5826084BD84B5816084BD85B58260BF
:104E200085BD85B5816085BD80916E008160809370
:104E30006E001092810080918100826080938100D9
:104E400080918100816080938100809180008160E9
:104E5000809380008091B10084608093B100809144
:104E6000B00081608093B00080917A00846080936C
:104E70007A0080917A00826080937A0080917A0033
:104E8000816080937A0080917A00806880937A00B4
:104E90001092C100E0912206F091230682E0808307
:104EA000E0911E06F0911F061082E0912006F0911D
:104EB000210680E1808310922A06E0912606F09177
:104EC000270686E08083E0912406F0912506808104
:104ED00080618083E0912406F091250680818860BE
:104EE0008083E0912406F09125068081806880838C
:104EF000E0912406F091250680818F7D80830E94B9
:104F000039048091E5069091E606009711F00E9421
:104F1000DF3986E090E00E9443398C018091E306FE
:104F20009091E4062091E206D8012C9312969C936E
:104F30008E93119713961C92139780E290E015962A
:104F40009C938E9314971093E6060093E5060E94B7
:104F5000390481E0F8018383C8010E947F0588231A
:104F6000E1F060E880E00E94160D6AE070E080E009
:104F700090E00E94930280E498E7ADE7B1E080936F
:104F8000E7069093E806A093E906B093EA0660E08E
:104F900070E08AE794E40E943E0D0E94D60C80E403
:104FA00098E7ADE7B1E08093E7069093E806A09319
:104FB000E906B093EA0660E070E088E492E40E94BB
:104FC0003E0D0E94D60C1FB7F8948091E403811126
:104FD00024C0E0E6F3E08491E4E7F3E09491E82F65
:104FE000F0E0EE0FFF1FE45BFC4FA591B491EC9154
:104FF000E92321F461E08AE00E940B028AE00E942A
:10500000EA018CB580618CBD8CB580648CBD8DE06F
:105010000E94EA018BE00E94EA018091E4038F5F25
:105020008093E4031FBF8091BE068F3F09F47AC0CE
:105030009091BF069F3F09F475C0891731F00E9417
:10504000EA018091BF060E94EA018091BE0690911C
:10505000BF06891719F060E00E940B0281E00E94F0
:10506000570265E070E080E090E00E9493026FE5F7
:1050700084E00E94390F90E080E00E946D0F8DE186
:105080000E945B0F182F0E94CC0F8DE10E945B0FD6
:1050900091E0181390E09093D106882341F0181303
:1050A00002C00E94CC0F60E08DE10E94390F109287
:1050B000D30660E08CE10E94390F1092D5066FE3B1
:1050C00081E00E94390F63E082E00E94390F80E2A4
:1050D0008093C50611E16091C506812F0E94390FAA
:1050E0001F5F1731C1F763E083E00E94390F85E04D
:1050F0008093D4066CE40E94390F60E787E00E9439
:10510000390F82EE0E94C00F81EE0E94C00F6CE743
:1051100080E00E94390F80E00E945B0F8093D006F0
:105120000E944C0F6CE485E00E94390F82E090E011
:105130000E946D0FE8E1F1E084914091D4066EE1A8
:1051400072E00E94A00F82E00E945B0FEEE1F1E0AE
:10515000E49161E070E001C0660FEA95EAF7682B20
:1051600082E00E94390F0E944C0F6091D00661606E
:105170006093D00680E00E94390F60E787E00E94CC
:10518000390F8091BE069091BF06891719F061E032
:105190000E940B028091D206882309F452C14091EB
:1051A000D40666EC76E08AE00E94A00F2EEE31E095
:1051B0003F8B2E8B0EEB11E0E2EE2E2EE5E03E2E25
:1051C0008CE0EE89FF89DE01119601900D928A959F
:1051D000E1F789819A81AB81BC818A8F9B8FAC8FEB
:1051E000BD8FCD80DE80EF80F884C701B6010E94BC
:1051F000D2352B013C0129853A854B855C85C70159
:10520000B6010E94F4344B015C010E94D2356E8FCE
:105210007F8F88A399A32AEA31E742E752E4C301CA
:10522000B2010E94D0332EE03DE249E252E40E94F6
:10523000F4342B013C0121E93DE641EB52E46E8D53
:105240007F8D88A199A10E94D0339B01AC01C3013D
:10525000B2010E94F4342B013C016A8D7B8D8C8D50
:105260009D8D0E94D2359B01AC01C301B2010E9409
:10527000D0336E8F7F8F88A399A36A8D7B8D8C8DA1
:105280009D8D0E949C389B01AC01C301B2010E941C
:10529000D0336A8F7B8F8C8F9D8FC701B6010E94A0
:1052A0009C386AA37BA38CA39DA3C501B4010E9473
:1052B0009C386EA37FA388A799A7D8011896CD9094
:1052C000DD90ED90FC901B97C701B6010E94D2358E
:1052D0004B015C01C701B6010E949C386B017C0147
:1052E0002E8D3F8D48A159A10E94D033F801248111
:1052F0003581468157810E94F4342B013C012A8D6F
:105300003B8D4C8D5D8DC501B4010E94D0339B0156
:10531000AC01C301B2010E94F4342B013C012E8D7B
:105320003F8D48A159A1C501B4010E94D033D801D5
:105330002D913D914D915C910E94F4344B015C01A3
:105340002A8D3B8D4C8D5D8DC701B6010E94D033F7
:105350009B01AC01C501B4010E94F334F1016083EB
:1053600071838283938344825582668277822AEA9C
:1053700031E742E752E46AA17BA18CA19DA10E9482
:10538000D0336B017C0121E93DE641EB52E46EA193
:105390007FA188A599A50E94D0339B01AC01C701CC
:1053A000B6010E94F434F101608771878287938788
:1053B0002E893F89245F3F4F3F8B2E8B045F1F4F09
:1053C0003CE0230E311C41E00E3E140709F0F8CEFC
:1053D00083E291E00E94050F1E015DE0250E311C65
:1053E00079E0772E6624639487E10E945B0F80FD4D
:1053F00071C1D101E72D1D92EA95E9F78091D5069B
:10540000F12C59E0E52E811109C08091C506E82EE6
:105410008A3010F069E0E62EF82EFE180E94110F77
:1054200081E60E94ED038093C4068101EA94FFEFB8
:10543000EF16E1F08FEF0E94ED03D8018D938D01FF
:10544000F5CF82E00E945B0FEDE1F1E0E49121E015
:1054500030E001C0220FEA95EAF72095622F682319
:1054600082E00E94390F1092D206A0CEFA94BFEFCC
:10547000FB1621F08FEF0E94ED03F8CF0E946B0224
:1054800060E487E00E94390F8D8980FFADCF2FB790
:10549000F8948091A4049091A504A091A604B091E1
:1054A000A7042FBF80939F049093A004A093A1040E
:1054B000B093A20461E070E0C1010E945006082F81
:1054C00062E070E0C1010E945006182F60E170E0B8
:1054D000C1010E945006002349F00E94D60C898920
:1054E0009A899093E6038093E5037ECF112329F0F8
:1054F0001092E7030E94170BF2CF882311F18091DD
:10550000E70386258093E703882349F310929704E5
:10551000109298041092990410929A0410929B048D
:1055200010929C0410929D0410929E04809170042D
:1055300090917104029799F2109271041092700484
:10554000CECF80910004882351F200917004109115
:1055500071040130110519F280916F048111BFCFE0
:105560008091E703882389F01092970410929804A1
:105570001092990410929A0410929B0410929C0429
:1055800010929D0410929E04AACF0230110509F0DA
:105590005CC060E270E0C1010E945006882381F087
:1055A00020E030E040E850E46091660470916704C8
:1055B00080916804909169040E94F4340E948F06DF
:1055C00068E070E0C1010E945006882381F020E06D
:1055D00030E040E850E46091660470916704809187
:1055E0006804909169040E94F3340E948F0664E07D
:1055F00070E0C1010E945006882381F020E030E075
:1056000040E450E460916A0470916B0480916C04F2
:1056100090916D040E94F4340E94620660E470E090
:10562000C1010E945006882381F020E030E040E470
:1056300050E460916A0470916B0480916C049091C5
:105640006D040E94F3340E9462068D8980FF3CC085
:105650008B898230C9F5888981950E9472074B0138
:105660005C018F850E9472076B017C0180929B0414
:1056700090929C04A0929D04B0929E04C0929704C4
:10568000D0929804E0929904F0929A04C501B40172
:105690009F772AE037ED43E25CE30E94E837181673
:1056A00064F0C701B6019F772AE037ED43E25CE37F
:1056B0000E94E83718160CF012CF0230110509F4D9
:1056C0000ECF0E94E1090BCFC12CD12C76014601EF
:1056D0005701CCCF8FB7F8944090A4045090A50404
:1056E0006090A6047090A7048FBF80919F04909152
:1056F000A004A091A104B091A2040097A105B10556
:1057000009F443C0A3019201281B390B4A0B5B0B20
:10571000DA01C901853F9140A105B105B0F1609161
:105720009B0470919C0480919D0490919E049F77AE
:105730002AE037ED43E25CE30E94E83718168CF06C
:1057400060919704709198048091990490919A04C3
:105750009F772AE037ED43E25CE30E94E8371816B2
:10576000A4F4109297041092980410929904109245
:105770009A0410929B0410929C0410929D04109223
:105780009E0488E193E00E94050F4CE2842E41E0E4
:10579000942E82E196E00E942303892B09F43FC3F3
:1057A00082E196E00E940103883549F40E94D60CFC
:1057B0001092960481E193E00E94050FEACF8D30AC
:1057C00019F08A3009F018C380919604E6E7F4E0F6
:1057D00000E0801791F09191903211F40F5FF9CFB2
:1057E00090E09C0121503109F901EA58FB4F4081BA
:1057F000403231F4C9010217A0F310929604C9CFC8
:105800008A589B4FDC011C9210E00A581B4F4AE05B
:1058100050E065EE72E0C8010E94713A892B69F38D
:1058200043E050E060EF72E0C8010E94713A892BBA
:1058300021F344E050E064EF72E0C8010E94713A45
:10584000892BD9F245E050E069EF72E0C8010E946F
:10585000713A892B91F249E050E06FEF72E0C80194
:105860000E94713A892B49F269E073E0C8010E94F5
:10587000683A892B29F48BE292E00E94050FBDCF94
:1058800048E050E06EE073E0C8010E94713A892B55
:1058900009F0C4C08091700490917104892B19F0B3
:1058A00083E192E0EACF34E2C32E32E0D32EF12C32
:1058B000E12C085F1F4FF601A080B180B501C8013F
:1058C0000E94683A892B69F0FFEFEF1AFF0A22E382
:1058D000C20ED11C33E0E316F10469F787E092E0D1
:1058E000CCCF42E34E9D90014F9D300D1124F90124
:1058F000EC5DFD4F82819381A481B5818093080185
:1059000090930901A0930A01B0930B0186819781BE
:10591000A085B18580930C0190930D01A0930E0199
:10592000B0930F0182859385A485B585809310017E
:1059300090931101A0931201B0931301868597856E
:10594000A089B1898093140190931501A093160149
:10595000B093170182899389A489B589809318012E
:1059600090931901A0931A01B0931B0186A197A1EE
:10597000A0A5B1A58093E8039093E903A093EA035F
:10598000B093EB0382A593A5A4A5B5A58093660467
:1059900090936704A0936804B093690486A597A5C3
:1059A000A0A9B1A980936A0490936B04A0936C049E
:1059B000B0936D04ACE1B1E090E080E0F901E80F54
:1059C000F91FEC5DFD4F46895789608D718D4D93B0
:1059D0005D936D937D9304968031910579F747E04F
:1059E00050E0B50180E091E00E947F3A10920701FB
:1059F0008BEF91E00E94B20340E051E0DA010D909C
:105A00000020E9F7AD014150514060E071E082E1D2
:105A100096E00E94C5020E94FD0EEFCE67E173E0A2
:105A2000C8010E94683A892B29F40E94D60C84EFA1
:105A300091E023CF69E173E0C8010E94683A892BA5
:105A400039F06EE173E0C8010E94683A892BE9F4ED
:105A500010929704109298041092990410929A044C
:105A600010929B0410929C0410929D0410929E042C
:105A70008091700490917104029721F0109271044A
:105A80001092700488EE91E0F8CE47E050E064E2B6
:105A900073E0C8010E94713A892B71F4C80107961E
:105AA0000E94F5310E948F06811103C087ED91E0BD
:105AB000E4CE8DEC91E0E1CE48E050E06CE273E0A2
:105AC000C8010E94713A892B71F4C80108960E949E
:105AD000F5310E946206811103C08BEB91E0CDCEBF
